{
  "contractName": "CoinNft",
  "abi": [
    {
      "inputs": [],
      "stateMutability": "nonpayable",
      "type": "constructor"
    },
    {
      "anonymous": false,
      "inputs": [
        {
          "indexed": true,
          "internalType": "address",
          "name": "account",
          "type": "address"
        },
        {
          "indexed": true,
          "internalType": "address",
          "name": "operator",
          "type": "address"
        },
        {
          "indexed": false,
          "internalType": "bool",
          "name": "approved",
          "type": "bool"
        }
      ],
      "name": "ApprovalForAll",
      "type": "event"
    },
    {
      "anonymous": false,
      "inputs": [
        {
          "indexed": true,
          "internalType": "address",
          "name": "operator",
          "type": "address"
        },
        {
          "indexed": true,
          "internalType": "address",
          "name": "from",
          "type": "address"
        },
        {
          "indexed": true,
          "internalType": "address",
          "name": "to",
          "type": "address"
        },
        {
          "indexed": false,
          "internalType": "uint256[]",
          "name": "ids",
          "type": "uint256[]"
        },
        {
          "indexed": false,
          "internalType": "uint256[]",
          "name": "values",
          "type": "uint256[]"
        }
      ],
      "name": "TransferBatch",
      "type": "event"
    },
    {
      "anonymous": false,
      "inputs": [
        {
          "indexed": true,
          "internalType": "address",
          "name": "operator",
          "type": "address"
        },
        {
          "indexed": true,
          "internalType": "address",
          "name": "from",
          "type": "address"
        },
        {
          "indexed": true,
          "internalType": "address",
          "name": "to",
          "type": "address"
        },
        {
          "indexed": false,
          "internalType": "uint256",
          "name": "id",
          "type": "uint256"
        },
        {
          "indexed": false,
          "internalType": "uint256",
          "name": "value",
          "type": "uint256"
        }
      ],
      "name": "TransferSingle",
      "type": "event"
    },
    {
      "anonymous": false,
      "inputs": [
        {
          "indexed": false,
          "internalType": "string",
          "name": "value",
          "type": "string"
        },
        {
          "indexed": true,
          "internalType": "uint256",
          "name": "id",
          "type": "uint256"
        }
      ],
      "name": "URI",
      "type": "event"
    },
    {
      "inputs": [
        {
          "internalType": "address",
          "name": "account",
          "type": "address"
        },
        {
          "internalType": "uint256",
          "name": "id",
          "type": "uint256"
        }
      ],
      "name": "balanceOf",
      "outputs": [
        {
          "internalType": "uint256",
          "name": "",
          "type": "uint256"
        }
      ],
      "stateMutability": "view",
      "type": "function"
    },
    {
      "inputs": [
        {
          "internalType": "address[]",
          "name": "accounts",
          "type": "address[]"
        },
        {
          "internalType": "uint256[]",
          "name": "ids",
          "type": "uint256[]"
        }
      ],
      "name": "balanceOfBatch",
      "outputs": [
        {
          "internalType": "uint256[]",
          "name": "",
          "type": "uint256[]"
        }
      ],
      "stateMutability": "view",
      "type": "function"
    },
    {
      "inputs": [
        {
          "internalType": "address",
          "name": "account",
          "type": "address"
        },
        {
          "internalType": "address",
          "name": "operator",
          "type": "address"
        }
      ],
      "name": "isApprovedForAll",
      "outputs": [
        {
          "internalType": "bool",
          "name": "",
          "type": "bool"
        }
      ],
      "stateMutability": "view",
      "type": "function"
    },
    {
      "inputs": [
        {
          "internalType": "address",
          "name": "from",
          "type": "address"
        },
        {
          "internalType": "address",
          "name": "to",
          "type": "address"
        },
        {
          "internalType": "uint256[]",
          "name": "ids",
          "type": "uint256[]"
        },
        {
          "internalType": "uint256[]",
          "name": "amounts",
          "type": "uint256[]"
        },
        {
          "internalType": "bytes",
          "name": "data",
          "type": "bytes"
        }
      ],
      "name": "safeBatchTransferFrom",
      "outputs": [],
      "stateMutability": "nonpayable",
      "type": "function"
    },
    {
      "inputs": [
        {
          "internalType": "address",
          "name": "from",
          "type": "address"
        },
        {
          "internalType": "address",
          "name": "to",
          "type": "address"
        },
        {
          "internalType": "uint256",
          "name": "id",
          "type": "uint256"
        },
        {
          "internalType": "uint256",
          "name": "amount",
          "type": "uint256"
        },
        {
          "internalType": "bytes",
          "name": "data",
          "type": "bytes"
        }
      ],
      "name": "safeTransferFrom",
      "outputs": [],
      "stateMutability": "nonpayable",
      "type": "function"
    },
    {
      "inputs": [
        {
          "internalType": "address",
          "name": "operator",
          "type": "address"
        },
        {
          "internalType": "bool",
          "name": "approved",
          "type": "bool"
        }
      ],
      "name": "setApprovalForAll",
      "outputs": [],
      "stateMutability": "nonpayable",
      "type": "function"
    },
    {
      "inputs": [
        {
          "internalType": "bytes4",
          "name": "interfaceId",
          "type": "bytes4"
        }
      ],
      "name": "supportsInterface",
      "outputs": [
        {
          "internalType": "bool",
          "name": "",
          "type": "bool"
        }
      ],
      "stateMutability": "view",
      "type": "function"
    },
    {
      "inputs": [
        {
          "internalType": "uint256",
          "name": "",
          "type": "uint256"
        }
      ],
      "name": "uri",
      "outputs": [
        {
          "internalType": "string",
          "name": "",
          "type": "string"
        }
      ],
      "stateMutability": "view",
      "type": "function"
    },
    {
      "inputs": [
        {
          "internalType": "uint256",
          "name": "tokenId",
          "type": "uint256"
        },
        {
          "internalType": "uint256",
          "name": "amount",
          "type": "uint256"
        }
      ],
      "name": "mintCaller",
      "outputs": [],
      "stateMutability": "nonpayable",
      "type": "function"
    },
    {
      "inputs": [
        {
          "internalType": "uint256",
          "name": "tokenId",
          "type": "uint256"
        },
        {
          "internalType": "uint256",
          "name": "amount",
          "type": "uint256"
        },
        {
          "internalType": "address",
          "name": "addr",
          "type": "address"
        }
      ],
      "name": "mintAddress",
      "outputs": [],
      "stateMutability": "nonpayable",
      "type": "function"
    }
  ],
  "bytecode": "0x60806040523480156200001157600080fd5b5060405180608001604052806052815260200162002a9a605291396200003d816200004460201b60201c565b5062000174565b80600290805190602001906200005c92919062000060565b5050565b8280546200006e906200013f565b90600052602060002090601f016020900481019282620000925760008555620000de565b82601f10620000ad57805160ff1916838001178555620000de565b82800160010185558215620000de579182015b82811115620000dd578251825591602001919060010190620000c0565b5b509050620000ed9190620000f1565b5090565b5b808211156200010c576000816000905550600101620000f2565b5090565b7f4e487b7100000000000000000000000000000000000000000000000000000000600052602260045260246000fd5b600060028204905060018216806200015857607f821691505b6020821081036200016e576200016d62000110565b5b50919050565b61291680620001846000396000f3fe608060405234801561001057600080fd5b506004361061009d5760003560e01c8063a22cb46511610066578063a22cb4651461017e578063d111d8861461019a578063d2149136146101b6578063e985e9c5146101d2578063f242432a146102025761009d565b8062fdd58e146100a257806301ffc9a7146100d25780630e89341c146101025780632eb2c2d6146101325780634e1273f41461014e575b600080fd5b6100bc60048036038101906100b791906115ed565b61021e565b6040516100c9919061163c565b60405180910390f35b6100ec60048036038101906100e791906116af565b6102e6565b6040516100f991906116f7565b60405180910390f35b61011c60048036038101906101179190611712565b6103c8565b60405161012991906117d8565b60405180910390f35b61014c600480360381019061014791906119f7565b61045c565b005b61016860048036038101906101639190611b89565b6104fd565b6040516101759190611cbf565b60405180910390f35b61019860048036038101906101939190611d0d565b610616565b005b6101b460048036038101906101af9190611d4d565b61062c565b005b6101d060048036038101906101cb9190611da0565b61064c565b005b6101ec60048036038101906101e79190611de0565b61066b565b6040516101f991906116f7565b60405180910390f35b61021c60048036038101906102179190611e20565b6106ff565b005b60008073ffffffffffffffffffffffffffffffffffffffff168373ffffffffffffffffffffffffffffffffffffffff160361028e576040517f08c379a000000000000000000000000000000000000000000000000000000000815260040161028590611f29565b60405180910390fd5b60008083815260200190815260200160002060008473ffffffffffffffffffffffffffffffffffffffff1673ffffffffffffffffffffffffffffffffffffffff16815260200190815260200160002054905092915050565b60007fd9b67a26000000000000000000000000000000000000000000000000000000007bffffffffffffffffffffffffffffffffffffffffffffffffffffffff1916827bffffffffffffffffffffffffffffffffffffffffffffffffffffffff191614806103b157507f0e89341c000000000000000000000000000000000000000000000000000000007bffffffffffffffffffffffffffffffffffffffffffffffffffffffff1916827bffffffffffffffffffffffffffffffffffffffffffffffffffffffff1916145b806103c157506103c0826107a0565b5b9050919050565b6060600280546103d790611f78565b80601f016020809104026020016040519081016040528092919081815260200182805461040390611f78565b80156104505780601f1061042557610100808354040283529160200191610450565b820191906000526020600020905b81548152906001019060200180831161043357829003601f168201915b50505050509050919050565b61046461080a565b73ffffffffffffffffffffffffffffffffffffffff168573ffffffffffffffffffffffffffffffffffffffff1614806104aa57506104a9856104a461080a565b61066b565b5b6104e9576040517f08c379a00000000000000000000000000000000000000000000000000000000081526004016104e09061201b565b60405180910390fd5b6104f68585858585610812565b5050505050565b60608151835114610543576040517f08c379a000000000000000000000000000000000000000000000000000000000815260040161053a906120ad565b60405180910390fd5b6000835167ffffffffffffffff8111156105605761055f6117ff565b5b60405190808252806020026020018201604052801561058e5781602001602082028036833780820191505090505b50905060005b845181101561060b576105db8582815181106105b3576105b26120cd565b5b60200260200101518583815181106105ce576105cd6120cd565b5b602002602001015161021e565b8282815181106105ee576105ed6120cd565b5b602002602001018181525050806106049061212b565b9050610594565b508091505092915050565b61062861062161080a565b8383610b33565b5050565b61064781848460405180602001604052806000815250610c9f565b505050565b61066733838360405180602001604052806000815250610c9f565b5050565b6000600160008473ffffffffffffffffffffffffffffffffffffffff1673ffffffffffffffffffffffffffffffffffffffff16815260200190815260200160002060008373ffffffffffffffffffffffffffffffffffffffff1673ffffffffffffffffffffffffffffffffffffffff16815260200190815260200160002060009054906101000a900460ff16905092915050565b61070761080a565b73ffffffffffffffffffffffffffffffffffffffff168573ffffffffffffffffffffffffffffffffffffffff16148061074d575061074c8561074761080a565b61066b565b5b61078c576040517f08c379a0000000000000000000000000000000000000000000000000000000008152600401610783906121e5565b60405180910390fd5b6107998585858585610e4f565b5050505050565b60007f01ffc9a7000000000000000000000000000000000000000000000000000000007bffffffffffffffffffffffffffffffffffffffffffffffffffffffff1916827bffffffffffffffffffffffffffffffffffffffffffffffffffffffff1916149050919050565b600033905090565b8151835114610856576040517f08c379a000000000000000000000000000000000000000000000000000000000815260040161084d90612277565b60405180910390fd5b600073ffffffffffffffffffffffffffffffffffffffff168473ffffffffffffffffffffffffffffffffffffffff16036108c5576040517f08c379a00000000000000000000000000000000000000000000000000000000081526004016108bc90612309565b60405180910390fd5b60006108cf61080a565b90506108df8187878787876110ea565b60005b8451811015610a90576000858281518110610900576108ff6120cd565b5b60200260200101519050600085838151811061091f5761091e6120cd565b5b60200260200101519050600080600084815260200190815260200160002060008b73ffffffffffffffffffffffffffffffffffffffff1673ffffffffffffffffffffffffffffffffffffffff168152602001908152602001600020549050818110156109c0576040517f08c379a00000000000000000000000000000000000000000000000000000000081526004016109b79061239b565b60405180910390fd5b81810360008085815260200190815260200160002060008c73ffffffffffffffffffffffffffffffffffffffff1673ffffffffffffffffffffffffffffffffffffffff168152602001908152602001600020819055508160008085815260200190815260200160002060008b73ffffffffffffffffffffffffffffffffffffffff1673ffffffffffffffffffffffffffffffffffffffff1681526020019081526020016000206000828254610a7591906123bb565b9250508190555050505080610a899061212b565b90506108e2565b508473ffffffffffffffffffffffffffffffffffffffff168673ffffffffffffffffffffffffffffffffffffffff168273ffffffffffffffffffffffffffffffffffffffff167f4a39dc06d4c0dbc64b70af90fd698a233a518aa5d07e595d983b8c0526c8f7fb8787604051610b07929190612411565b60405180910390a4610b1d8187878787876110f2565b610b2b8187878787876110fa565b505050505050565b8173ffffffffffffffffffffffffffffffffffffffff168373ffffffffffffffffffffffffffffffffffffffff1603610ba1576040517f08c379a0000000000000000000000000000000000000000000000000000000008152600401610b98906124ba565b60405180910390fd5b80600160008573ffffffffffffffffffffffffffffffffffffffff1673ffffffffffffffffffffffffffffffffffffffff16815260200190815260200160002060008473ffffffffffffffffffffffffffffffffffffffff1673ffffffffffffffffffffffffffffffffffffffff16815260200190815260200160002060006101000a81548160ff0219169083151502179055508173ffffffffffffffffffffffffffffffffffffffff168373ffffffffffffffffffffffffffffffffffffffff167f17307eab39ab6107e8899845ad3d59bd9653f200f220920489ca2b5937696c3183604051610c9291906116f7565b60405180910390a3505050565b600073ffffffffffffffffffffffffffffffffffffffff168473ffffffffffffffffffffffffffffffffffffffff1603610d0e576040517f08c379a0000000000000000000000000000000000000000000000000000000008152600401610d059061254c565b60405180910390fd5b6000610d1861080a565b90506000610d25856112d1565b90506000610d32856112d1565b9050610d43836000898585896110ea565b8460008088815260200190815260200160002060008973ffffffffffffffffffffffffffffffffffffffff1673ffffffffffffffffffffffffffffffffffffffff1681526020019081526020016000206000828254610da291906123bb565b925050819055508673ffffffffffffffffffffffffffffffffffffffff16600073ffffffffffffffffffffffffffffffffffffffff168473ffffffffffffffffffffffffffffffffffffffff167fc3d58168c5ae7397731d063d5bbf3d657854427343f4c083240f7aacaa2d0f628989604051610e2092919061256c565b60405180910390a4610e37836000898585896110f2565b610e468360008989898961134b565b50505050505050565b600073ffffffffffffffffffffffffffffffffffffffff168473ffffffffffffffffffffffffffffffffffffffff1603610ebe576040517f08c379a0000000000000000000000000000000000000000000000000000000008152600401610eb590612309565b60405180910390fd5b6000610ec861080a565b90506000610ed5856112d1565b90506000610ee2856112d1565b9050610ef28389898585896110ea565b600080600088815260200190815260200160002060008a73ffffffffffffffffffffffffffffffffffffffff1673ffffffffffffffffffffffffffffffffffffffff16815260200190815260200160002054905085811015610f89576040517f08c379a0000000000000000000000000000000000000000000000000000000008152600401610f809061239b565b60405180910390fd5b85810360008089815260200190815260200160002060008b73ffffffffffffffffffffffffffffffffffffffff1673ffffffffffffffffffffffffffffffffffffffff168152602001908152602001600020819055508560008089815260200190815260200160002060008a73ffffffffffffffffffffffffffffffffffffffff1673ffffffffffffffffffffffffffffffffffffffff168152602001908152602001600020600082825461103e91906123bb565b925050819055508773ffffffffffffffffffffffffffffffffffffffff168973ffffffffffffffffffffffffffffffffffffffff168573ffffffffffffffffffffffffffffffffffffffff167fc3d58168c5ae7397731d063d5bbf3d657854427343f4c083240f7aacaa2d0f628a8a6040516110bb92919061256c565b60405180910390a46110d1848a8a86868a6110f2565b6110df848a8a8a8a8a61134b565b505050505050505050565b505050505050565b505050505050565b6111198473ffffffffffffffffffffffffffffffffffffffff16611522565b156112c9578373ffffffffffffffffffffffffffffffffffffffff1663bc197c8187878686866040518663ffffffff1660e01b815260040161115f9594939291906125f9565b6020604051808303816000875af192505050801561119b57506040513d601f19601f820116820180604052508101906111989190612676565b60015b611240576111a76126b0565b806308c379a00361120357506111bb6126d2565b806111c65750611205565b806040517f08c379a00000000000000000000000000000000000000000000000000000000081526004016111fa91906117d8565b60405180910390fd5b505b6040517f08c379a0000000000000000000000000000000000000000000000000000000008152600401611237906127d4565b60405180910390fd5b63bc197c8160e01b7bffffffffffffffffffffffffffffffffffffffffffffffffffffffff1916817bffffffffffffffffffffffffffffffffffffffffffffffffffffffff1916146112c7576040517f08c379a00000000000000000000000000000000000000000000000000000000081526004016112be90612866565b60405180910390fd5b505b505050505050565b60606000600167ffffffffffffffff8111156112f0576112ef6117ff565b5b60405190808252806020026020018201604052801561131e5781602001602082028036833780820191505090505b5090508281600081518110611336576113356120cd565b5b60200260200101818152505080915050919050565b61136a8473ffffffffffffffffffffffffffffffffffffffff16611522565b1561151a578373ffffffffffffffffffffffffffffffffffffffff1663f23a6e6187878686866040518663ffffffff1660e01b81526004016113b0959493929190612886565b6020604051808303816000875af19250505080156113ec57506040513d601f19601f820116820180604052508101906113e99190612676565b60015b611491576113f86126b0565b806308c379a003611454575061140c6126d2565b806114175750611456565b806040517f08c379a000000000000000000000000000000000000000000000000000000000815260040161144b91906117d8565b60405180910390fd5b505b6040517f08c379a0000000000000000000000000000000000000000000000000000000008152600401611488906127d4565b60405180910390fd5b63f23a6e6160e01b7bffffffffffffffffffffffffffffffffffffffffffffffffffffffff1916817bffffffffffffffffffffffffffffffffffffffffffffffffffffffff191614611518576040517f08c379a000000000000000000000000000000000000000000000000000000000815260040161150f90612866565b60405180910390fd5b505b505050505050565b6000808273ffffffffffffffffffffffffffffffffffffffff163b119050919050565b6000604051905090565b600080fd5b600080fd5b600073ffffffffffffffffffffffffffffffffffffffff82169050919050565b600061158482611559565b9050919050565b61159481611579565b811461159f57600080fd5b50565b6000813590506115b18161158b565b92915050565b6000819050919050565b6115ca816115b7565b81146115d557600080fd5b50565b6000813590506115e7816115c1565b92915050565b600080604083850312156116045761160361154f565b5b6000611612858286016115a2565b9250506020611623858286016115d8565b9150509250929050565b611636816115b7565b82525050565b6000602082019050611651600083018461162d565b92915050565b60007fffffffff0000000000000000000000000000000000000000000000000000000082169050919050565b61168c81611657565b811461169757600080fd5b50565b6000813590506116a981611683565b92915050565b6000602082840312156116c5576116c461154f565b5b60006116d38482850161169a565b91505092915050565b60008115159050919050565b6116f1816116dc565b82525050565b600060208201905061170c60008301846116e8565b92915050565b6000602082840312156117285761172761154f565b5b6000611736848285016115d8565b91505092915050565b600081519050919050565b600082825260208201905092915050565b60005b8381101561177957808201518184015260208101905061175e565b83811115611788576000848401525b50505050565b6000601f19601f8301169050919050565b60006117aa8261173f565b6117b4818561174a565b93506117c481856020860161175b565b6117cd8161178e565b840191505092915050565b600060208201905081810360008301526117f2818461179f565b905092915050565b600080fd5b7f4e487b7100000000000000000000000000000000000000000000000000000000600052604160045260246000fd5b6118378261178e565b810181811067ffffffffffffffff82111715611856576118556117ff565b5b80604052505050565b6000611869611545565b9050611875828261182e565b919050565b600067ffffffffffffffff821115611895576118946117ff565b5b602082029050602081019050919050565b600080fd5b60006118be6118b98461187a565b61185f565b905080838252602082019050602084028301858111156118e1576118e06118a6565b5b835b8181101561190a57806118f688826115d8565b8452602084019350506020810190506118e3565b5050509392505050565b600082601f830112611929576119286117fa565b5b81356119398482602086016118ab565b91505092915050565b600080fd5b600067ffffffffffffffff821115611962576119616117ff565b5b61196b8261178e565b9050602081019050919050565b82818337600083830152505050565b600061199a61199584611947565b61185f565b9050828152602081018484840111156119b6576119b5611942565b5b6119c1848285611978565b509392505050565b600082601f8301126119de576119dd6117fa565b5b81356119ee848260208601611987565b91505092915050565b600080600080600060a08688031215611a1357611a1261154f565b5b6000611a21888289016115a2565b9550506020611a32888289016115a2565b945050604086013567ffffffffffffffff811115611a5357611a52611554565b5b611a5f88828901611914565b935050606086013567ffffffffffffffff811115611a8057611a7f611554565b5b611a8c88828901611914565b925050608086013567ffffffffffffffff811115611aad57611aac611554565b5b611ab9888289016119c9565b9150509295509295909350565b600067ffffffffffffffff821115611ae157611ae06117ff565b5b602082029050602081019050919050565b6000611b05611b0084611ac6565b61185f565b90508083825260208201905060208402830185811115611b2857611b276118a6565b5b835b81811015611b515780611b3d88826115a2565b845260208401935050602081019050611b2a565b5050509392505050565b600082601f830112611b7057611b6f6117fa565b5b8135611b80848260208601611af2565b91505092915050565b60008060408385031215611ba057611b9f61154f565b5b600083013567ffffffffffffffff811115611bbe57611bbd611554565b5b611bca85828601611b5b565b925050602083013567ffffffffffffffff811115611beb57611bea611554565b5b611bf785828601611914565b9150509250929050565b600081519050919050565b600082825260208201905092915050565b6000819050602082019050919050565b611c36816115b7565b82525050565b6000611c488383611c2d565b60208301905092915050565b6000602082019050919050565b6000611c6c82611c01565b611c768185611c0c565b9350611c8183611c1d565b8060005b83811015611cb2578151611c998882611c3c565b9750611ca483611c54565b925050600181019050611c85565b5085935050505092915050565b60006020820190508181036000830152611cd98184611c61565b905092915050565b611cea816116dc565b8114611cf557600080fd5b50565b600081359050611d0781611ce1565b92915050565b60008060408385031215611d2457611d2361154f565b5b6000611d32858286016115a2565b9250506020611d4385828601611cf8565b9150509250929050565b600080600060608486031215611d6657611d6561154f565b5b6000611d74868287016115d8565b9350506020611d85868287016115d8565b9250506040611d96868287016115a2565b9150509250925092565b60008060408385031215611db757611db661154f565b5b6000611dc5858286016115d8565b9250506020611dd6858286016115d8565b9150509250929050565b60008060408385031215611df757611df661154f565b5b6000611e05858286016115a2565b9250506020611e16858286016115a2565b9150509250929050565b600080600080600060a08688031215611e3c57611e3b61154f565b5b6000611e4a888289016115a2565b9550506020611e5b888289016115a2565b9450506040611e6c888289016115d8565b9350506060611e7d888289016115d8565b925050608086013567ffffffffffffffff811115611e9e57611e9d611554565b5b611eaa888289016119c9565b9150509295509295909350565b7f455243313135353a2062616c616e636520717565727920666f7220746865207a60008201527f65726f2061646472657373000000000000000000000000000000000000000000602082015250565b6000611f13602b8361174a565b9150611f1e82611eb7565b604082019050919050565b60006020820190508181036000830152611f4281611f06565b9050919050565b7f4e487b7100000000000000000000000000000000000000000000000000000000600052602260045260246000fd5b60006002820490506001821680611f9057607f821691505b602082108103611fa357611fa2611f49565b5b50919050565b7f455243313135353a207472616e736665722063616c6c6572206973206e6f742060008201527f6f776e6572206e6f7220617070726f7665640000000000000000000000000000602082015250565b600061200560328361174a565b915061201082611fa9565b604082019050919050565b6000602082019050818103600083015261203481611ff8565b9050919050565b7f455243313135353a206163636f756e747320616e6420696473206c656e67746860008201527f206d69736d617463680000000000000000000000000000000000000000000000602082015250565b600061209760298361174a565b91506120a28261203b565b604082019050919050565b600060208201905081810360008301526120c68161208a565b9050919050565b7f4e487b7100000000000000000000000000000000000000000000000000000000600052603260045260246000fd5b7f4e487b7100000000000000000000000000000000000000000000000000000000600052601160045260246000fd5b6000612136826115b7565b91507fffffffffffffffffffffffffffffffffffffffffffffffffffffffffffffffff8203612168576121676120fc565b5b600182019050919050565b7f455243313135353a2063616c6c6572206973206e6f74206f776e6572206e6f7260008201527f20617070726f7665640000000000000000000000000000000000000000000000602082015250565b60006121cf60298361174a565b91506121da82612173565b604082019050919050565b600060208201905081810360008301526121fe816121c2565b9050919050565b7f455243313135353a2069647320616e6420616d6f756e7473206c656e6774682060008201527f6d69736d61746368000000000000000000000000000000000000000000000000602082015250565b600061226160288361174a565b915061226c82612205565b604082019050919050565b6000602082019050818103600083015261229081612254565b9050919050565b7f455243313135353a207472616e7366657220746f20746865207a65726f20616460008201527f6472657373000000000000000000000000000000000000000000000000000000602082015250565b60006122f360258361174a565b91506122fe82612297565b604082019050919050565b60006020820190508181036000830152612322816122e6565b9050919050565b7f455243313135353a20696e73756666696369656e742062616c616e636520666f60008201527f72207472616e7366657200000000000000000000000000000000000000000000602082015250565b6000612385602a8361174a565b915061239082612329565b604082019050919050565b600060208201905081810360008301526123b481612378565b9050919050565b60006123c6826115b7565b91506123d1836115b7565b9250827fffffffffffffffffffffffffffffffffffffffffffffffffffffffffffffffff03821115612406576124056120fc565b5b828201905092915050565b6000604082019050818103600083015261242b8185611c61565b9050818103602083015261243f8184611c61565b90509392505050565b7f455243313135353a2073657474696e6720617070726f76616c2073746174757360008201527f20666f722073656c660000000000000000000000000000000000000000000000602082015250565b60006124a460298361174a565b91506124af82612448565b604082019050919050565b600060208201905081810360008301526124d381612497565b9050919050565b7f455243313135353a206d696e7420746f20746865207a65726f2061646472657360008201527f7300000000000000000000000000000000000000000000000000000000000000602082015250565b600061253660218361174a565b9150612541826124da565b604082019050919050565b6000602082019050818103600083015261256581612529565b9050919050565b6000604082019050612581600083018561162d565b61258e602083018461162d565b9392505050565b61259e81611579565b82525050565b600081519050919050565b600082825260208201905092915050565b60006125cb826125a4565b6125d581856125af565b93506125e581856020860161175b565b6125ee8161178e565b840191505092915050565b600060a08201905061260e6000830188612595565b61261b6020830187612595565b818103604083015261262d8186611c61565b905081810360608301526126418185611c61565b9050818103608083015261265581846125c0565b90509695505050505050565b60008151905061267081611683565b92915050565b60006020828403121561268c5761268b61154f565b5b600061269a84828501612661565b91505092915050565b60008160e01c9050919050565b600060033d11156126cf5760046000803e6126cc6000516126a3565b90505b90565b600060443d1061275f576126e4611545565b60043d036004823e80513d602482011167ffffffffffffffff8211171561270c57505061275f565b808201805167ffffffffffffffff81111561272a575050505061275f565b80602083010160043d03850181111561274757505050505061275f565b6127568260200185018661182e565b82955050505050505b90565b7f455243313135353a207472616e7366657220746f206e6f6e204552433131353560008201527f526563656976657220696d706c656d656e746572000000000000000000000000602082015250565b60006127be60348361174a565b91506127c982612762565b604082019050919050565b600060208201905081810360008301526127ed816127b1565b9050919050565b7f455243313135353a204552433131353552656365697665722072656a6563746560008201527f6420746f6b656e73000000000000000000000000000000000000000000000000602082015250565b600061285060288361174a565b915061285b826127f4565b604082019050919050565b6000602082019050818103600083015261287f81612843565b9050919050565b600060a08201905061289b6000830188612595565b6128a86020830187612595565b6128b5604083018661162d565b6128c2606083018561162d565b81810360808301526128d481846125c0565b9050969550505050505056fea26469706673582212201becfc53221622ec66da4f7c52824358724a20504b643729f65cc33812bb414d64736f6c634300080d003368747470733a2f2f7261772e67697468756275736572636f6e74656e742e636f6d2f6e6f6f706d6f6f642f5475746f7269616c4e4654496e476f2f6d61696e2f6d657461646174612f7b69647d2e6a736f6e",
  "immutableReferences": {},
  "source": "// Contract based on https://docs.openzeppelin.com/contracts/4.x/erc1155\n// SPDX-License-Identifier: MIT\n\npragma solidity ^0.8.0;\nimport \"../node_modules/@openzeppelin/contracts/token/ERC1155/ERC1155.sol\";\n\ncontract CoinNft is ERC1155 {\n    constructor()\n        ERC1155(\n            \"https://raw.githubusercontent.com/noopmood/TutorialNFTInGo/main/metadata/{id}.json\"\n        )\n    {}\n\n    function mintCaller(uint256 tokenId, uint256 amount) public {\n        _mint(msg.sender, tokenId, amount, \"\");\n    }\n\n    function mintAddress(\n        uint256 tokenId,\n        uint256 amount,\n        address addr\n    ) public {\n        _mint(addr, tokenId, amount, \"\");\n    }\n}\n",
  "sourcePath": "/Users/hangyeonghyeon/Desktop/ERC-1155GO/contracts/CointNft.sol",
  "compiler": {
    "name": "solc",
    "version": "0.8.13+commit.abaa5c0e.Emscripten.clang"
  },
  "schemaVersion": "3.4.6",
  "updatedAt": "2022-06-28T12:41:44.303Z",
  "devdoc": {
    "kind": "dev",
    "methods": {
      "balanceOf(address,uint256)": {
        "details": "See {IERC1155-balanceOf}. Requirements: - `account` cannot be the zero address."
      },
      "balanceOfBatch(address[],uint256[])": {
        "details": "See {IERC1155-balanceOfBatch}. Requirements: - `accounts` and `ids` must have the same length."
      },
      "isApprovedForAll(address,address)": {
        "details": "See {IERC1155-isApprovedForAll}."
      },
      "safeBatchTransferFrom(address,address,uint256[],uint256[],bytes)": {
        "details": "See {IERC1155-safeBatchTransferFrom}."
      },
      "safeTransferFrom(address,address,uint256,uint256,bytes)": {
        "details": "See {IERC1155-safeTransferFrom}."
      },
      "setApprovalForAll(address,bool)": {
        "details": "See {IERC1155-setApprovalForAll}."
      },
      "supportsInterface(bytes4)": {
        "details": "See {IERC165-supportsInterface}."
      },
      "uri(uint256)": {
        "details": "See {IERC1155MetadataURI-uri}. This implementation returns the same URI for *all* token types. It relies on the token type ID substitution mechanism https://eips.ethereum.org/EIPS/eip-1155#metadata[defined in the EIP]. Clients calling this function must replace the `\\{id\\}` substring with the actual token type ID."
      }
    },
    "version": 1
  },
  "userdoc": {
    "kind": "user",
    "methods": {},
    "version": 1
  }
}